{
  "contractName": "MLCCoin",
  "abi": [
    {
      "constant": true,
      "inputs": [],
      "name": "name",
      "outputs": [
        {
          "name": "",
          "type": "string"
        }
      ],
      "payable": false,
      "stateMutability": "view",
      "type": "function"
    },
    {
      "constant": true,
      "inputs": [],
      "name": "decimals",
      "outputs": [
        {
          "name": "",
          "type": "uint8"
        }
      ],
      "payable": false,
      "stateMutability": "view",
      "type": "function"
    },
    {
      "constant": true,
      "inputs": [],
      "name": "_totalSupply",
      "outputs": [
        {
          "name": "",
          "type": "uint256"
        }
      ],
      "payable": false,
      "stateMutability": "view",
      "type": "function"
    },
    {
      "constant": true,
      "inputs": [],
      "name": "symbol",
      "outputs": [
        {
          "name": "",
          "type": "string"
        }
      ],
      "payable": false,
      "stateMutability": "view",
      "type": "function"
    },
    {
      "constant": true,
      "inputs": [
        {
          "name": "a",
          "type": "uint256"
        },
        {
          "name": "b",
          "type": "uint256"
        }
      ],
      "name": "safeSub",
      "outputs": [
        {
          "name": "c",
          "type": "uint256"
        }
      ],
      "payable": false,
      "stateMutability": "pure",
      "type": "function"
    },
    {
      "constant": true,
      "inputs": [
        {
          "name": "a",
          "type": "uint256"
        },
        {
          "name": "b",
          "type": "uint256"
        }
      ],
      "name": "safeDiv",
      "outputs": [
        {
          "name": "c",
          "type": "uint256"
        }
      ],
      "payable": false,
      "stateMutability": "pure",
      "type": "function"
    },
    {
      "constant": true,
      "inputs": [
        {
          "name": "a",
          "type": "uint256"
        },
        {
          "name": "b",
          "type": "uint256"
        }
      ],
      "name": "safeMul",
      "outputs": [
        {
          "name": "c",
          "type": "uint256"
        }
      ],
      "payable": false,
      "stateMutability": "pure",
      "type": "function"
    },
    {
      "constant": true,
      "inputs": [
        {
          "name": "a",
          "type": "uint256"
        },
        {
          "name": "b",
          "type": "uint256"
        }
      ],
      "name": "safeAdd",
      "outputs": [
        {
          "name": "c",
          "type": "uint256"
        }
      ],
      "payable": false,
      "stateMutability": "pure",
      "type": "function"
    },
    {
      "inputs": [],
      "payable": false,
      "stateMutability": "nonpayable",
      "type": "constructor"
    },
    {
      "anonymous": false,
      "inputs": [
        {
          "indexed": true,
          "name": "_from",
          "type": "address"
        },
        {
          "indexed": true,
          "name": "_to",
          "type": "address"
        },
        {
          "indexed": false,
          "name": "tokens",
          "type": "uint256"
        }
      ],
      "name": "Transfer",
      "type": "event"
    },
    {
      "anonymous": false,
      "inputs": [
        {
          "indexed": true,
          "name": "_owner",
          "type": "address"
        },
        {
          "indexed": true,
          "name": "_spender",
          "type": "address"
        },
        {
          "indexed": false,
          "name": "tokens",
          "type": "uint256"
        }
      ],
      "name": "Approval",
      "type": "event"
    },
    {
      "constant": true,
      "inputs": [],
      "name": "totalSupply",
      "outputs": [
        {
          "name": "",
          "type": "uint256"
        }
      ],
      "payable": false,
      "stateMutability": "view",
      "type": "function"
    },
    {
      "constant": true,
      "inputs": [
        {
          "name": "_owner",
          "type": "address"
        }
      ],
      "name": "balanceOf",
      "outputs": [
        {
          "name": "balance256",
          "type": "uint256"
        }
      ],
      "payable": false,
      "stateMutability": "view",
      "type": "function"
    },
    {
      "constant": true,
      "inputs": [
        {
          "name": "_owner",
          "type": "address"
        },
        {
          "name": "_spender",
          "type": "address"
        }
      ],
      "name": "allowance",
      "outputs": [
        {
          "name": "",
          "type": "uint256"
        }
      ],
      "payable": false,
      "stateMutability": "view",
      "type": "function"
    },
    {
      "constant": false,
      "inputs": [
        {
          "name": "_spender",
          "type": "address"
        },
        {
          "name": "tokens",
          "type": "uint256"
        }
      ],
      "name": "approve",
      "outputs": [
        {
          "name": "",
          "type": "bool"
        }
      ],
      "payable": false,
      "stateMutability": "nonpayable",
      "type": "function"
    },
    {
      "constant": false,
      "inputs": [
        {
          "name": "_to",
          "type": "address"
        },
        {
          "name": "tokens",
          "type": "uint256"
        }
      ],
      "name": "transfer",
      "outputs": [
        {
          "name": "",
          "type": "bool"
        }
      ],
      "payable": false,
      "stateMutability": "nonpayable",
      "type": "function"
    },
    {
      "constant": false,
      "inputs": [
        {
          "name": "_from",
          "type": "address"
        },
        {
          "name": "_to",
          "type": "address"
        },
        {
          "name": "tokens",
          "type": "uint256"
        }
      ],
      "name": "transferFrom",
      "outputs": [
        {
          "name": "",
          "type": "bool"
        }
      ],
      "payable": false,
      "stateMutability": "nonpayable",
      "type": "function"
    }
  ],
  "bytecode": "0x608060405234801561001057600080fd5b506040805190810160405280600781526020017f4d4c43436f696e000000000000000000000000000000000000000000000000008152506000908051906020019061005c929190610183565b506040805190810160405280600381526020017f4d4c430000000000000000000000000000000000000000000000000000000000815250600190805190602001906100a8929190610183565b506003600260006101000a81548160ff021916908360ff160217905550633b9aca00600381905550600354600460003373ffffffffffffffffffffffffffffffffffffffff1673ffffffffffffffffffffffffffffffffffffffff168152602001908152602001600020819055503373ffffffffffffffffffffffffffffffffffffffff16600073ffffffffffffffffffffffffffffffffffffffff167fddf252ad1be2c89b69c2b068fc378daa952ba7f163c4a11628f55a4df523b3ef6003546040518082815260200191505060405180910390a3610228565b828054600181600116156101000203166002900490600052602060002090601f016020900481019282601f106101c457805160ff19168380011785556101f2565b828001600101855582156101f2579182015b828111156101f15782518255916020019190600101906101d6565b5b5090506101ff9190610203565b5090565b61022591905b80821115610221576000816000905550600101610209565b5090565b90565b610db8806102376000396000f3006080604052600436106100d0576000357c0100000000000000000000000000000000000000000000000000000000900463ffffffff16806306fdde03146100d5578063095ea7b31461016557806318160ddd146101ca57806323b872dd146101f5578063313ce5671461027a5780633eaaf86b146102ab57806370a08231146102d657806395d89b411461032d578063a293d1e8146103bd578063a9059cbb14610408578063b5931f7c1461046d578063d05c78da146104b8578063dd62ed3e14610503578063e6cb90131461057a575b600080fd5b3480156100e157600080fd5b506100ea6105c5565b6040518080602001828103825283818151815260200191508051906020019080838360005b8381101561012a57808201518184015260208101905061010f565b50505050905090810190601f1680156101575780820380516001836020036101000a031916815260200191505b509250505060405180910390f35b34801561017157600080fd5b506101b0600480360381019080803573ffffffffffffffffffffffffffffffffffffffff16906020019092919080359060200190929190505050610663565b604051808215151515815260200191505060405180910390f35b3480156101d657600080fd5b506101df610755565b6040518082815260200191505060405180910390f35b34801561020157600080fd5b50610260600480360381019080803573ffffffffffffffffffffffffffffffffffffffff169060200190929190803573ffffffffffffffffffffffffffffffffffffffff1690602001909291908035906020019092919050505061075f565b604051808215151515815260200191505060405180910390f35b34801561028657600080fd5b5061028f6109ef565b604051808260ff1660ff16815260200191505060405180910390f35b3480156102b757600080fd5b506102c0610a02565b6040518082815260200191505060405180910390f35b3480156102e257600080fd5b50610317600480360381019080803573ffffffffffffffffffffffffffffffffffffffff169060200190929190505050610a08565b6040518082815260200191505060405180910390f35b34801561033957600080fd5b50610342610a51565b6040518080602001828103825283818151815260200191508051906020019080838360005b83811015610382578082015181840152602081019050610367565b50505050905090810190601f1680156103af5780820380516001836020036101000a031916815260200191505b509250505060405180910390f35b3480156103c957600080fd5b506103f26004803603810190808035906020019092919080359060200190929190505050610aef565b6040518082815260200191505060405180910390f35b34801561041457600080fd5b50610453600480360381019080803573ffffffffffffffffffffffffffffffffffffffff16906020019092919080359060200190929190505050610b0b565b604051808215151515815260200191505060405180910390f35b34801561047957600080fd5b506104a26004803603810190808035906020019092919080359060200190929190505050610c94565b6040518082815260200191505060405180910390f35b3480156104c457600080fd5b506104ed6004803603810190808035906020019092919080359060200190929190505050610cb8565b6040518082815260200191505060405180910390f35b34801561050f57600080fd5b50610564600480360381019080803573ffffffffffffffffffffffffffffffffffffffff169060200190929190803573ffffffffffffffffffffffffffffffffffffffff169060200190929190505050610ce9565b6040518082815260200191505060405180910390f35b34801561058657600080fd5b506105af6004803603810190808035906020019092919080359060200190929190505050610d70565b6040518082815260200191505060405180910390f35b60008054600181600116156101000203166002900480601f01602080910402602001604051908101604052809291908181526020018280546001816001161561010002031660029004801561065b5780601f106106305761010080835404028352916020019161065b565b820191906000526020600020905b81548152906001019060200180831161063e57829003601f168201915b505050505081565b600081600560003373ffffffffffffffffffffffffffffffffffffffff1673ffffffffffffffffffffffffffffffffffffffff16815260200190815260200160002060008573ffffffffffffffffffffffffffffffffffffffff1673ffffffffffffffffffffffffffffffffffffffff168152602001908152602001600020819055508273ffffffffffffffffffffffffffffffffffffffff163373ffffffffffffffffffffffffffffffffffffffff167f8c5be1e5ebec7d5bd14f71427d1e84f3dd0314c0f7b2291e5b200ac8c7c3b925846040518082815260200191505060405180910390a36001905092915050565b6000600354905090565b60006107aa600460008673ffffffffffffffffffffffffffffffffffffffff1673ffffffffffffffffffffffffffffffffffffffff1681526020019081526020016000205483610aef565b600460008673ffffffffffffffffffffffffffffffffffffffff1673ffffffffffffffffffffffffffffffffffffffff16815260200190815260200160002081905550610836600460008573ffffffffffffffffffffffffffffffffffffffff1673ffffffffffffffffffffffffffffffffffffffff1681526020019081526020016000205483610d70565b600460008573ffffffffffffffffffffffffffffffffffffffff1673ffffffffffffffffffffffffffffffffffffffff168152602001908152602001600020819055506108ff600560008673ffffffffffffffffffffffffffffffffffffffff1673ffffffffffffffffffffffffffffffffffffffff16815260200190815260200160002060003373ffffffffffffffffffffffffffffffffffffffff1673ffffffffffffffffffffffffffffffffffffffff1681526020019081526020016000205483610aef565b600560008673ffffffffffffffffffffffffffffffffffffffff1673ffffffffffffffffffffffffffffffffffffffff16815260200190815260200160002060003373ffffffffffffffffffffffffffffffffffffffff1673ffffffffffffffffffffffffffffffffffffffff168152602001908152602001600020819055508273ffffffffffffffffffffffffffffffffffffffff168473ffffffffffffffffffffffffffffffffffffffff167fddf252ad1be2c89b69c2b068fc378daa952ba7f163c4a11628f55a4df523b3ef846040518082815260200191505060405180910390a3600190509392505050565b600260009054906101000a900460ff1681565b60035481565b6000600460008373ffffffffffffffffffffffffffffffffffffffff1673ffffffffffffffffffffffffffffffffffffffff168152602001908152602001600020549050919050565b60018054600181600116156101000203166002900480601f016020809104026020016040519081016040528092919081815260200182805460018160011615610100020316600290048015610ae75780601f10610abc57610100808354040283529160200191610ae7565b820191906000526020600020905b815481529060010190602001808311610aca57829003601f168201915b505050505081565b6000828211151515610b0057600080fd5b818303905092915050565b6000610b56600460003373ffffffffffffffffffffffffffffffffffffffff1673ffffffffffffffffffffffffffffffffffffffff1681526020019081526020016000205483610aef565b600460003373ffffffffffffffffffffffffffffffffffffffff1673ffffffffffffffffffffffffffffffffffffffff16815260200190815260200160002081905550610be2600460008573ffffffffffffffffffffffffffffffffffffffff1673ffffffffffffffffffffffffffffffffffffffff1681526020019081526020016000205483610d70565b600460008573ffffffffffffffffffffffffffffffffffffffff1673ffffffffffffffffffffffffffffffffffffffff168152602001908152602001600020819055508273ffffffffffffffffffffffffffffffffffffffff163373ffffffffffffffffffffffffffffffffffffffff167fddf252ad1be2c89b69c2b068fc378daa952ba7f163c4a11628f55a4df523b3ef846040518082815260200191505060405180910390a36001905092915050565b60008082111515610ca457600080fd5b8183811515610caf57fe5b04905092915050565b600081830290506000831480610cd85750818382811515610cd557fe5b04145b1515610ce357600080fd5b92915050565b6000600560008473ffffffffffffffffffffffffffffffffffffffff1673ffffffffffffffffffffffffffffffffffffffff16815260200190815260200160002060008373ffffffffffffffffffffffffffffffffffffffff1673ffffffffffffffffffffffffffffffffffffffff16815260200190815260200160002054905092915050565b60008183019050828110151515610d8657600080fd5b929150505600a165627a7a72305820816f710b662fc5d62d56a564a66fa7b0a7855a6a23b17fb30c1079564b0f28690029",
  "source": "pragma solidity ^0.4.21;\n\n// ----------------------------------------------------------------------------\n// ERC Token Standard #20 Interface\n//\n// ----------------------------------------------------------------------------\ncontract ERC20Interface {\n    function totalSupply() public view returns (uint);\n    function balanceOf(address _owner) public view returns (uint balance);\n    function allowance(address _owner, address _spender) public view returns (uint256);\n    function transfer(address _to, uint tokens) public returns (bool);\n    function approve(address _spender, uint tokens) public returns (bool);\n    function transferFrom(address _from, address _to, uint tokens) public returns (bool);\n\n    event Transfer(address indexed _from, address indexed _to, uint tokens);\n    event Approval(address indexed _owner, address indexed _spender, uint tokens);\n}\n\n// ----------------------------------------------------------------------------\n// Safe Math Library \n// ----------------------------------------------------------------------------\ncontract SafeMath {\n    function safeAdd(uint a, uint b) public pure returns (uint c) {\n        c = a + b;\n        require(c >= a);\n    }\n    function safeSub(uint a, uint b) public pure returns (uint c) {\n        require(b <= a); c = a - b; } function safeMul(uint a, uint b) public pure returns (uint c) { c = a * b; require(a == 0 || c / a == b); } function safeDiv(uint a, uint b) public pure returns (uint c) { require(b > 0);\n        c = a / b;\n    }\n}\n\ncontract MLCCoin is ERC20Interface, SafeMath {\n    string public name;\n    string public symbol;\n    uint8 public decimals;\n    \n    uint256 public _totalSupply;\n    \n    mapping(address => uint256) _balances;\n    mapping(address => mapping(address => uint256)) _allowed;\n    \n    constructor() public {\n        name = \"MLCCoin\";\n        symbol = \"MLC\";\n        decimals = 3;\n        _totalSupply = 1000000000;\n\n        \n        _balances[msg.sender] = _totalSupply;\n        emit Transfer(address(0), msg.sender, _totalSupply);\n    }\n    \n    function totalSupply() public view returns (uint256) {\n        return _totalSupply;\n    }\n    \n    function balanceOf(address _owner) public view returns (uint balance256) {\n        return _balances[_owner];\n    }\n    \n    function allowance(address _owner, address _spender) public view returns (uint256) {\n        return _allowed[_owner][_spender];\n    }\n    \n    function approve(address _spender, uint tokens) public returns (bool) {\n        _allowed[msg.sender][_spender] = tokens;\n        emit Approval(msg.sender, _spender, tokens);\n        return true;\n    }\n    \n    function transfer(address _to, uint tokens) public returns (bool) {\n        _balances[msg.sender] = safeSub(_balances[msg.sender], tokens);\n        _balances[_to] = safeAdd(_balances[_to], tokens);\n        emit Transfer(msg.sender, _to, tokens);\n        return true;\n    }\n    \n    function transferFrom(address _from, address _to, uint tokens) public returns (bool) {\n        _balances[_from] = safeSub(_balances[_from], tokens);\n        _balances[_to] = safeAdd(_balances[_to], tokens);\n        _allowed[_from][msg.sender] = safeSub(_allowed[_from][msg.sender], tokens);\n        emit Transfer(_from, _to, tokens);\n        return true;\n    }\n}\n",
  "sourcePath": "/home/eugene/Documents/Blockchain/Project/ex11q1/contracts/MLCCoin.sol",
  "compiler": {
    "name": "solc",
    "version": "0.4.24+commit.e67f0147.Emscripten.clang"
  },
  "schemaVersion": "2.0.1",
  "updatedAt": "2020-04-18T11:08:38.791Z"
}